{
  "_format": "hh-sol-artifact-1",
  "contractName": "FreelancePayment",
  "sourceName": "contracts/Freelance.sol",
  "abi": [
    {
      "inputs": [
        {
          "internalType": "address payable",
          "name": "_freelancerAddress",
          "type": "address"
        },
        {
          "internalType": "uint256",
          "name": "_contractDeadline",
          "type": "uint256"
        }
      ],
      "stateMutability": "payable",
      "type": "constructor"
    },
    {
      "anonymous": false,
      "inputs": [
        {
          "indexed": true,
          "internalType": "address",
          "name": "freelancer",
          "type": "address"
        },
        {
          "indexed": false,
          "internalType": "uint256",
          "name": "amount",
          "type": "uint256"
        }
      ],
      "name": "ExcessFundsWithdrawn",
      "type": "event"
    },
    {
      "anonymous": false,
      "inputs": [
        {
          "indexed": true,
          "internalType": "uint256",
          "name": "requestId",
          "type": "uint256"
        },
        {
          "indexed": false,
          "internalType": "string",
          "name": "description",
          "type": "string"
        },
        {
          "indexed": false,
          "internalType": "uint256",
          "name": "amount",
          "type": "uint256"
        }
      ],
      "name": "RequestCreated",
      "type": "event"
    },
    {
      "anonymous": false,
      "inputs": [
        {
          "indexed": true,
          "internalType": "address",
          "name": "freelancer",
          "type": "address"
        },
        {
          "indexed": false,
          "internalType": "uint256",
          "name": "amount",
          "type": "uint256"
        }
      ],
      "name": "RequestPaid",
      "type": "event"
    },
    {
      "anonymous": false,
      "inputs": [
        {
          "indexed": true,
          "internalType": "uint256",
          "name": "requestId",
          "type": "uint256"
        },
        {
          "indexed": false,
          "internalType": "bool",
          "name": "isLocked",
          "type": "bool"
        }
      ],
      "name": "RequestUnlocked",
      "type": "event"
    },
    {
      "inputs": [
        {
          "internalType": "uint256",
          "name": "_index",
          "type": "uint256"
        }
      ],
      "name": "claimPayment",
      "outputs": [],
      "stateMutability": "nonpayable",
      "type": "function"
    },
    {
      "inputs": [],
      "name": "clientAddress",
      "outputs": [
        {
          "internalType": "address",
          "name": "",
          "type": "address"
        }
      ],
      "stateMutability": "view",
      "type": "function"
    },
    {
      "inputs": [],
      "name": "contractDeadline",
      "outputs": [
        {
          "internalType": "uint256",
          "name": "",
          "type": "uint256"
        }
      ],
      "stateMutability": "view",
      "type": "function"
    },
    {
      "inputs": [
        {
          "internalType": "string",
          "name": "_description",
          "type": "string"
        },
        {
          "internalType": "uint256",
          "name": "_amount",
          "type": "uint256"
        }
      ],
      "name": "createPaymentRequest",
      "outputs": [],
      "stateMutability": "nonpayable",
      "type": "function"
    },
    {
      "inputs": [],
      "name": "freelancerAddress",
      "outputs": [
        {
          "internalType": "address payable",
          "name": "",
          "type": "address"
        }
      ],
      "stateMutability": "view",
      "type": "function"
    },
    {
      "inputs": [],
      "name": "getAllPaymentRequests",
      "outputs": [
        {
          "components": [
            {
              "internalType": "string",
              "name": "description",
              "type": "string"
            },
            {
              "internalType": "uint256",
              "name": "amount",
              "type": "uint256"
            },
            {
              "internalType": "bool",
              "name": "isLocked",
              "type": "bool"
            },
            {
              "internalType": "bool",
              "name": "isPaid",
              "type": "bool"
            }
          ],
          "internalType": "struct FreelancePayment.PaymentRequest[]",
          "name": "",
          "type": "tuple[]"
        }
      ],
      "stateMutability": "view",
      "type": "function"
    },
    {
      "inputs": [
        {
          "internalType": "uint256",
          "name": "",
          "type": "uint256"
        }
      ],
      "name": "paymentRequests",
      "outputs": [
        {
          "internalType": "string",
          "name": "description",
          "type": "string"
        },
        {
          "internalType": "uint256",
          "name": "amount",
          "type": "uint256"
        },
        {
          "internalType": "bool",
          "name": "isLocked",
          "type": "bool"
        },
        {
          "internalType": "bool",
          "name": "isPaid",
          "type": "bool"
        }
      ],
      "stateMutability": "view",
      "type": "function"
    },
    {
      "inputs": [],
      "name": "totalContractValue",
      "outputs": [
        {
          "internalType": "uint256",
          "name": "",
          "type": "uint256"
        }
      ],
      "stateMutability": "view",
      "type": "function"
    },
    {
      "inputs": [
        {
          "internalType": "uint256",
          "name": "_index",
          "type": "uint256"
        }
      ],
      "name": "unlockPaymentRequest",
      "outputs": [],
      "stateMutability": "nonpayable",
      "type": "function"
    },
    {
      "inputs": [],
      "name": "withdrawExcessFunds",
      "outputs": [],
      "stateMutability": "nonpayable",
      "type": "function"
    },
    {
      "stateMutability": "payable",
      "type": "receive"
    }
  ],
  "bytecode": "0x60806040526000600460006101000a81548160ff021916908315150217905550604051611d10380380611d108339818101604052810190610040919061016f565b816000806101000a81548173ffffffffffffffffffffffffffffffffffffffff021916908373ffffffffffffffffffffffffffffffffffffffff1602179055508060018190555033600260006101000a81548173ffffffffffffffffffffffffffffffffffffffff021916908373ffffffffffffffffffffffffffffffffffffffff1602179055503460038190555050506101af565b600080fd5b600073ffffffffffffffffffffffffffffffffffffffff82169050919050565b6000610106826100db565b9050919050565b610116816100fb565b811461012157600080fd5b50565b6000815190506101338161010d565b92915050565b6000819050919050565b61014c81610139565b811461015757600080fd5b50565b60008151905061016981610143565b92915050565b60008060408385031215610186576101856100d6565b5b600061019485828601610124565b92505060206101a58582860161015a565b9150509250929050565b611b52806101be6000396000f3fe6080604052600436106100955760003560e01c806365d2b5661161005957806365d2b5661461018c5780637446720c146101b7578063c63fdcc7146101e2578063d43588001461020b578063fcb67c5b1461024b576100b4565b806306a4e7cb146100b95780630aa1487b146100e45780632c2ab5ea1461010d578063316a29fc14610138578063339de91314610161576100b4565b366100b45734600360008282546100ac9190610de4565b925050819055005b600080fd5b3480156100c557600080fd5b506100ce610262565b6040516100db9190610e59565b60405180910390f35b3480156100f057600080fd5b5061010b60048036038101906101069190610eb4565b610286565b005b34801561011957600080fd5b506101226103e7565b60405161012f9190610f02565b60405180910390f35b34801561014457600080fd5b5061015f600480360381019061015a9190611063565b61040d565b005b34801561016d57600080fd5b506101766105a4565b604051610183919061128d565b60405180910390f35b34801561019857600080fd5b506101a1610765565b6040516101ae91906112be565b60405180910390f35b3480156101c357600080fd5b506101cc61076b565b6040516101d991906112be565b60405180910390f35b3480156101ee57600080fd5b5061020960048036038101906102049190610eb4565b610771565b005b34801561021757600080fd5b50610232600480360381019061022d9190610eb4565b610ab4565b6040516102429493929190611332565b60405180910390f35b34801561025757600080fd5b50610260610b96565b005b60008054906101000a900473ffffffffffffffffffffffffffffffffffffffff1681565b600260009054906101000a900473ffffffffffffffffffffffffffffffffffffffff1673ffffffffffffffffffffffffffffffffffffffff163373ffffffffffffffffffffffffffffffffffffffff1614610316576040517f08c379a000000000000000000000000000000000000000000000000000000000815260040161030d906113ca565b60405180910390fd5b60006005828154811061032c5761032b6113ea565b5b906000526020600020906003020190508060020160009054906101000a900460ff1661038d576040517f08c379a000000000000000000000000000000000000000000000000000000000815260040161038490611465565b60405180910390fd5b60008160020160006101000a81548160ff021916908315150217905550817fe09e758fc94dcae972656b3937c25379ed68193f7cec51f02712120acf27d51660006040516103db9190611485565b60405180910390a25050565b600260009054906101000a900473ffffffffffffffffffffffffffffffffffffffff1681565b60008054906101000a900473ffffffffffffffffffffffffffffffffffffffff1673ffffffffffffffffffffffffffffffffffffffff163373ffffffffffffffffffffffffffffffffffffffff161461049b576040517f08c379a0000000000000000000000000000000000000000000000000000000008152600401610492906114ec565b60405180910390fd5b60006040518060800160405280848152602001838152602001600115158152602001600015158152509050600581908060018154018082558091505060019003906000526020600020906003020160009091909190915060008201518160000190816105079190611718565b506020820151816001015560408201518160020160006101000a81548160ff02191690831515021790555060608201518160020160016101000a81548160ff0219169083151502179055505050600160058054905061056691906117ea565b7ffd831c7c44ce8189cb2d2474d9e840354d60c0640174dbfda10485ca4934c2f7848460405161059792919061181e565b60405180910390a2505050565b6060600260009054906101000a900473ffffffffffffffffffffffffffffffffffffffff1673ffffffffffffffffffffffffffffffffffffffff163373ffffffffffffffffffffffffffffffffffffffff1614610636576040517f08c379a000000000000000000000000000000000000000000000000000000000815260040161062d906113ca565b60405180910390fd5b6005805480602002602001604051908101604052809291908181526020016000905b8282101561075c578382906000526020600020906003020160405180608001604052908160008201805461068b9061153b565b80601f01602080910402602001604051908101604052809291908181526020018280546106b79061153b565b80156107045780601f106106d957610100808354040283529160200191610704565b820191906000526020600020905b8154815290600101906020018083116106e757829003601f168201915b50505050508152602001600182015481526020016002820160009054906101000a900460ff161515151581526020016002820160019054906101000a900460ff16151515158152505081526020019060010190610658565b50505050905090565b60015481565b60035481565b60008054906101000a900473ffffffffffffffffffffffffffffffffffffffff1673ffffffffffffffffffffffffffffffffffffffff163373ffffffffffffffffffffffffffffffffffffffff16146107ff576040517f08c379a00000000000000000000000000000000000000000000000000000000081526004016107f6906114ec565b60405180910390fd5b600460009054906101000a900460ff161561084f576040517f08c379a00000000000000000000000000000000000000000000000000000000081526004016108469061189a565b60405180910390fd5b600060058281548110610865576108646113ea565b5b906000526020600020906003020190508060020160009054906101000a900460ff16156108c7576040517f08c379a00000000000000000000000000000000000000000000000000000000081526004016108be90611906565b60405180910390fd5b8060020160019054906101000a900460ff1615610919576040517f08c379a000000000000000000000000000000000000000000000000000000000815260040161091090611972565b60405180910390fd5b6001600460006101000a81548160ff02191690831515021790555060018160020160016101000a81548160ff02191690831515021790555060008060009054906101000a900473ffffffffffffffffffffffffffffffffffffffff1673ffffffffffffffffffffffffffffffffffffffff16826001015460405161099c906119c3565b60006040518083038185875af1925050503d80600081146109d9576040519150601f19603f3d011682016040523d82523d6000602084013e6109de565b606091505b5050905080610a22576040517f08c379a0000000000000000000000000000000000000000000000000000000008152600401610a1990611a24565b60405180910390fd5b6000600460006101000a81548160ff02191690831515021790555060008054906101000a900473ffffffffffffffffffffffffffffffffffffffff1673ffffffffffffffffffffffffffffffffffffffff167f8d3c4c2bd7fcd40b8e44b6e7331c1b5e1fd5cd51c8a6ff8a2051bc8280b1d88c8360010154604051610aa791906112be565b60405180910390a2505050565b60058181548110610ac457600080fd5b9060005260206000209060030201600091509050806000018054610ae79061153b565b80601f0160208091040260200160405190810160405280929190818152602001828054610b139061153b565b8015610b605780601f10610b3557610100808354040283529160200191610b60565b820191906000526020600020905b815481529060010190602001808311610b4357829003601f168201915b5050505050908060010154908060020160009054906101000a900460ff16908060020160019054906101000a900460ff16905084565b60008054906101000a900473ffffffffffffffffffffffffffffffffffffffff1673ffffffffffffffffffffffffffffffffffffffff163373ffffffffffffffffffffffffffffffffffffffff1614610c24576040517f08c379a0000000000000000000000000000000000000000000000000000000008152600401610c1b906114ec565b60405180910390fd5b600047905060008111610c6c576040517f08c379a0000000000000000000000000000000000000000000000000000000008152600401610c6390611a90565b60405180910390fd5b60008060009054906101000a900473ffffffffffffffffffffffffffffffffffffffff1673ffffffffffffffffffffffffffffffffffffffff1682604051610cb3906119c3565b60006040518083038185875af1925050503d8060008114610cf0576040519150601f19603f3d011682016040523d82523d6000602084013e610cf5565b606091505b5050905080610d39576040517f08c379a0000000000000000000000000000000000000000000000000000000008152600401610d3090611afc565b60405180910390fd5b60008054906101000a900473ffffffffffffffffffffffffffffffffffffffff1673ffffffffffffffffffffffffffffffffffffffff167f817e051263114eb0b758731f1e0fa64f44cd285b441cecd5bef328900f136a0583604051610d9f91906112be565b60405180910390a25050565b6000819050919050565b7f4e487b7100000000000000000000000000000000000000000000000000000000600052601160045260246000fd5b6000610def82610dab565b9150610dfa83610dab565b9250828201905080821115610e1257610e11610db5565b5b92915050565b600073ffffffffffffffffffffffffffffffffffffffff82169050919050565b6000610e4382610e18565b9050919050565b610e5381610e38565b82525050565b6000602082019050610e6e6000830184610e4a565b92915050565b6000604051905090565b600080fd5b600080fd5b610e9181610dab565b8114610e9c57600080fd5b50565b600081359050610eae81610e88565b92915050565b600060208284031215610eca57610ec9610e7e565b5b6000610ed884828501610e9f565b91505092915050565b6000610eec82610e18565b9050919050565b610efc81610ee1565b82525050565b6000602082019050610f176000830184610ef3565b92915050565b600080fd5b600080fd5b6000601f19601f8301169050919050565b7f4e487b7100000000000000000000000000000000000000000000000000000000600052604160045260246000fd5b610f7082610f27565b810181811067ffffffffffffffff82111715610f8f57610f8e610f38565b5b80604052505050565b6000610fa2610e74565b9050610fae8282610f67565b919050565b600067ffffffffffffffff821115610fce57610fcd610f38565b5b610fd782610f27565b9050602081019050919050565b82818337600083830152505050565b600061100661100184610fb3565b610f98565b90508281526020810184848401111561102257611021610f22565b5b61102d848285610fe4565b509392505050565b600082601f83011261104a57611049610f1d565b5b813561105a848260208601610ff3565b91505092915050565b6000806040838503121561107a57611079610e7e565b5b600083013567ffffffffffffffff81111561109857611097610e83565b5b6110a485828601611035565b92505060206110b585828601610e9f565b9150509250929050565b600081519050919050565b600082825260208201905092915050565b6000819050602082019050919050565b600081519050919050565b600082825260208201905092915050565b60005b8381101561112557808201518184015260208101905061110a565b60008484015250505050565b600061113c826110eb565b61114681856110f6565b9350611156818560208601611107565b61115f81610f27565b840191505092915050565b61117381610dab565b82525050565b60008115159050919050565b61118e81611179565b82525050565b600060808301600083015184820360008601526111b18282611131565b91505060208301516111c6602086018261116a565b5060408301516111d96040860182611185565b5060608301516111ec6060860182611185565b508091505092915050565b60006112038383611194565b905092915050565b6000602082019050919050565b6000611223826110bf565b61122d81856110ca565b93508360208202850161123f856110db565b8060005b8581101561127b578484038952815161125c85826111f7565b94506112678361120b565b925060208a01995050600181019050611243565b50829750879550505050505092915050565b600060208201905081810360008301526112a78184611218565b905092915050565b6112b881610dab565b82525050565b60006020820190506112d360008301846112af565b92915050565b600082825260208201905092915050565b60006112f5826110eb565b6112ff81856112d9565b935061130f818560208601611107565b61131881610f27565b840191505092915050565b61132c81611179565b82525050565b6000608082019050818103600083015261134c81876112ea565b905061135b60208301866112af565b6113686040830185611323565b6113756060830184611323565b95945050505050565b7f4f4e4c5920434c49454e54000000000000000000000000000000000000000000600082015250565b60006113b4600b836112d9565b91506113bf8261137e565b602082019050919050565b600060208201905081810360008301526113e3816113a7565b9050919050565b7f4e487b7100000000000000000000000000000000000000000000000000000000600052603260045260246000fd5b7f416c726561647920756e6c6f636b656400000000000000000000000000000000600082015250565b600061144f6010836112d9565b915061145a82611419565b602082019050919050565b6000602082019050818103600083015261147e81611442565b9050919050565b600060208201905061149a6000830184611323565b92915050565b7f4f4e4c5920465245454c414e4345520000000000000000000000000000000000600082015250565b60006114d6600f836112d9565b91506114e1826114a0565b602082019050919050565b60006020820190508181036000830152611505816114c9565b9050919050565b7f4e487b7100000000000000000000000000000000000000000000000000000000600052602260045260246000fd5b6000600282049050600182168061155357607f821691505b6020821081036115665761156561150c565b5b50919050565b60008190508160005260206000209050919050565b60006020601f8301049050919050565b600082821b905092915050565b6000600883026115ce7fffffffffffffffffffffffffffffffffffffffffffffffffffffffffffffffff82611591565b6115d88683611591565b95508019841693508086168417925050509392505050565b6000819050919050565b600061161561161061160b84610dab565b6115f0565b610dab565b9050919050565b6000819050919050565b61162f836115fa565b61164361163b8261161c565b84845461159e565b825550505050565b600090565b61165861164b565b611663818484611626565b505050565b5b818110156116875761167c600082611650565b600181019050611669565b5050565b601f8211156116cc5761169d8161156c565b6116a684611581565b810160208510156116b5578190505b6116c96116c185611581565b830182611668565b50505b505050565b600082821c905092915050565b60006116ef600019846008026116d1565b1980831691505092915050565b600061170883836116de565b9150826002028217905092915050565b611721826110eb565b67ffffffffffffffff81111561173a57611739610f38565b5b611744825461153b565b61174f82828561168b565b600060209050601f8311600181146117825760008415611770578287015190505b61177a85826116fc565b8655506117e2565b601f1984166117908661156c565b60005b828110156117b857848901518255600182019150602085019450602081019050611793565b868310156117d557848901516117d1601f8916826116de565b8355505b6001600288020188555050505b505050505050565b60006117f582610dab565b915061180083610dab565b925082820390508181111561181857611817610db5565b5b92915050565b6000604082019050818103600083015261183881856112ea565b905061184760208301846112af565b9392505050565b7f5265656e7472616e742063616c6c206465746563746564000000000000000000600082015250565b60006118846017836112d9565b915061188f8261184e565b602082019050919050565b600060208201905081810360008301526118b381611877565b9050919050565b7f52657175657374206973206c6f636b6564000000000000000000000000000000600082015250565b60006118f06011836112d9565b91506118fb826118ba565b602082019050919050565b6000602082019050818103600083015261191f816118e3565b9050919050565b7f416c726561647920706169640000000000000000000000000000000000000000600082015250565b600061195c600c836112d9565b915061196782611926565b602082019050919050565b6000602082019050818103600083015261198b8161194f565b9050919050565b600081905092915050565b50565b60006119ad600083611992565b91506119b88261199d565b600082019050919050565b60006119ce826119a0565b9150819050919050565b7f5472616e73666572206661696c65640000000000000000000000000000000000600082015250565b6000611a0e600f836112d9565b9150611a19826119d8565b602082019050919050565b60006020820190508181036000830152611a3d81611a01565b9050919050565b7f4e6f206578636573732066756e64730000000000000000000000000000000000600082015250565b6000611a7a600f836112d9565b9150611a8582611a44565b602082019050919050565b60006020820190508181036000830152611aa981611a6d565b9050919050565b7f5769746864726177616c206661696c6564000000000000000000000000000000600082015250565b6000611ae66011836112d9565b9150611af182611ab0565b602082019050919050565b60006020820190508181036000830152611b1581611ad9565b905091905056fea2646970667358221220a29cb9b3e7e7d09910a249d42cd3992608dea469329d4aa9990276aba47df86364736f6c634300081b0033",
  "linkReferences": {},
  "deployedLinkReferences": {}
}