{
  "_format": "hh-sol-artifact-1",
  "contractName": "SupplyChainManager",
  "sourceName": "contracts/Supplychain.sol",
  "abi": [
    {
      "inputs": [],
      "stateMutability": "nonpayable",
      "type": "constructor"
    },
    {
      "inputs": [],
      "name": "AccessControlBadConfirmation",
      "type": "error"
    },
    {
      "inputs": [
        {
          "internalType": "address",
          "name": "account",
          "type": "address"
        },
        {
          "internalType": "bytes32",
          "name": "neededRole",
          "type": "bytes32"
        }
      ],
      "name": "AccessControlUnauthorizedAccount",
      "type": "error"
    },
    {
      "anonymous": false,
      "inputs": [
        {
          "indexed": true,
          "internalType": "uint256",
          "name": "productId",
          "type": "uint256"
        }
      ],
      "name": "ProductCompleted",
      "type": "event"
    },
    {
      "anonymous": false,
      "inputs": [
        {
          "indexed": true,
          "internalType": "uint256",
          "name": "productId",
          "type": "uint256"
        },
        {
          "indexed": false,
          "internalType": "string",
          "name": "name",
          "type": "string"
        },
        {
          "indexed": true,
          "internalType": "address",
          "name": "manufacturer",
          "type": "address"
        }
      ],
      "name": "ProductRegistered",
      "type": "event"
    },
    {
      "anonymous": false,
      "inputs": [
        {
          "indexed": true,
          "internalType": "uint256",
          "name": "productId",
          "type": "uint256"
        }
      ],
      "name": "ProductUpdated",
      "type": "event"
    },
    {
      "anonymous": false,
      "inputs": [
        {
          "indexed": true,
          "internalType": "uint256",
          "name": "productId",
          "type": "uint256"
        },
        {
          "indexed": false,
          "internalType": "string",
          "name": "checkpoint",
          "type": "string"
        },
        {
          "indexed": false,
          "internalType": "bool",
          "name": "passed",
          "type": "bool"
        }
      ],
      "name": "QualityCheckAdded",
      "type": "event"
    },
    {
      "anonymous": false,
      "inputs": [
        {
          "indexed": true,
          "internalType": "bytes32",
          "name": "role",
          "type": "bytes32"
        },
        {
          "indexed": true,
          "internalType": "bytes32",
          "name": "previousAdminRole",
          "type": "bytes32"
        },
        {
          "indexed": true,
          "internalType": "bytes32",
          "name": "newAdminRole",
          "type": "bytes32"
        }
      ],
      "name": "RoleAdminChanged",
      "type": "event"
    },
    {
      "anonymous": false,
      "inputs": [
        {
          "indexed": true,
          "internalType": "bytes32",
          "name": "role",
          "type": "bytes32"
        },
        {
          "indexed": true,
          "internalType": "address",
          "name": "account",
          "type": "address"
        },
        {
          "indexed": true,
          "internalType": "address",
          "name": "sender",
          "type": "address"
        }
      ],
      "name": "RoleGranted",
      "type": "event"
    },
    {
      "anonymous": false,
      "inputs": [
        {
          "indexed": true,
          "internalType": "bytes32",
          "name": "role",
          "type": "bytes32"
        },
        {
          "indexed": true,
          "internalType": "address",
          "name": "account",
          "type": "address"
        },
        {
          "indexed": true,
          "internalType": "address",
          "name": "sender",
          "type": "address"
        }
      ],
      "name": "RoleRevoked",
      "type": "event"
    },
    {
      "inputs": [],
      "name": "DEFAULT_ADMIN_ROLE",
      "outputs": [
        {
          "internalType": "bytes32",
          "name": "",
          "type": "bytes32"
        }
      ],
      "stateMutability": "view",
      "type": "function"
    },
    {
      "inputs": [],
      "name": "ROLE_DISTRIBUTOR",
      "outputs": [
        {
          "internalType": "bytes32",
          "name": "",
          "type": "bytes32"
        }
      ],
      "stateMutability": "view",
      "type": "function"
    },
    {
      "inputs": [],
      "name": "ROLE_MANUFACTURER",
      "outputs": [
        {
          "internalType": "bytes32",
          "name": "",
          "type": "bytes32"
        }
      ],
      "stateMutability": "view",
      "type": "function"
    },
    {
      "inputs": [],
      "name": "ROLE_RETAILER",
      "outputs": [
        {
          "internalType": "bytes32",
          "name": "",
          "type": "bytes32"
        }
      ],
      "stateMutability": "view",
      "type": "function"
    },
    {
      "inputs": [
        {
          "internalType": "uint256",
          "name": "productId",
          "type": "uint256"
        },
        {
          "internalType": "string",
          "name": "checkpoint",
          "type": "string"
        },
        {
          "internalType": "bool",
          "name": "passed",
          "type": "bool"
        },
        {
          "internalType": "string",
          "name": "remarks",
          "type": "string"
        }
      ],
      "name": "addQualityCheck",
      "outputs": [],
      "stateMutability": "nonpayable",
      "type": "function"
    },
    {
      "inputs": [
        {
          "internalType": "uint256",
          "name": "productId",
          "type": "uint256"
        }
      ],
      "name": "completeProductJourney",
      "outputs": [],
      "stateMutability": "nonpayable",
      "type": "function"
    },
    {
      "inputs": [
        {
          "internalType": "uint256",
          "name": "productId",
          "type": "uint256"
        }
      ],
      "name": "getProductDetails",
      "outputs": [
        {
          "components": [
            {
              "internalType": "uint256",
              "name": "id",
              "type": "uint256"
            },
            {
              "internalType": "string",
              "name": "name",
              "type": "string"
            },
            {
              "internalType": "address",
              "name": "manufacturer",
              "type": "address"
            },
            {
              "internalType": "uint256",
              "name": "manufactureDate",
              "type": "uint256"
            },
            {
              "internalType": "string",
              "name": "origin",
              "type": "string"
            },
            {
              "internalType": "bool",
              "name": "isCompleted",
              "type": "bool"
            },
            {
              "internalType": "string",
              "name": "batchId",
              "type": "string"
            },
            {
              "internalType": "uint256",
              "name": "expiryDate",
              "type": "uint256"
            }
          ],
          "internalType": "struct SupplyChainManager.Product",
          "name": "",
          "type": "tuple"
        }
      ],
      "stateMutability": "view",
      "type": "function"
    },
    {
      "inputs": [
        {
          "internalType": "uint256",
          "name": "productId",
          "type": "uint256"
        }
      ],
      "name": "getQualityChecks",
      "outputs": [
        {
          "components": [
            {
              "internalType": "address",
              "name": "inspector",
              "type": "address"
            },
            {
              "internalType": "uint256",
              "name": "timestamp",
              "type": "uint256"
            },
            {
              "internalType": "string",
              "name": "checkpoint",
              "type": "string"
            },
            {
              "internalType": "bool",
              "name": "passed",
              "type": "bool"
            },
            {
              "internalType": "string",
              "name": "remarks",
              "type": "string"
            }
          ],
          "internalType": "struct SupplyChainManager.QualityCheck[]",
          "name": "",
          "type": "tuple[]"
        }
      ],
      "stateMutability": "view",
      "type": "function"
    },
    {
      "inputs": [
        {
          "internalType": "bytes32",
          "name": "role",
          "type": "bytes32"
        }
      ],
      "name": "getRoleAdmin",
      "outputs": [
        {
          "internalType": "bytes32",
          "name": "",
          "type": "bytes32"
        }
      ],
      "stateMutability": "view",
      "type": "function"
    },
    {
      "inputs": [
        {
          "internalType": "bytes32",
          "name": "role",
          "type": "bytes32"
        },
        {
          "internalType": "address",
          "name": "account",
          "type": "address"
        }
      ],
      "name": "grantRole",
      "outputs": [],
      "stateMutability": "nonpayable",
      "type": "function"
    },
    {
      "inputs": [
        {
          "internalType": "bytes32",
          "name": "role",
          "type": "bytes32"
        },
        {
          "internalType": "address",
          "name": "account",
          "type": "address"
        }
      ],
      "name": "hasRole",
      "outputs": [
        {
          "internalType": "bool",
          "name": "",
          "type": "bool"
        }
      ],
      "stateMutability": "view",
      "type": "function"
    },
    {
      "inputs": [
        {
          "internalType": "string",
          "name": "productName",
          "type": "string"
        },
        {
          "internalType": "string",
          "name": "originLocation",
          "type": "string"
        },
        {
          "internalType": "string",
          "name": "batchId",
          "type": "string"
        },
        {
          "internalType": "uint256",
          "name": "expiryDate",
          "type": "uint256"
        }
      ],
      "name": "registerProduct",
      "outputs": [],
      "stateMutability": "nonpayable",
      "type": "function"
    },
    {
      "inputs": [
        {
          "internalType": "bytes32",
          "name": "role",
          "type": "bytes32"
        },
        {
          "internalType": "address",
          "name": "callerConfirmation",
          "type": "address"
        }
      ],
      "name": "renounceRole",
      "outputs": [],
      "stateMutability": "nonpayable",
      "type": "function"
    },
    {
      "inputs": [
        {
          "internalType": "bytes32",
          "name": "role",
          "type": "bytes32"
        },
        {
          "internalType": "address",
          "name": "account",
          "type": "address"
        }
      ],
      "name": "revokeRole",
      "outputs": [],
      "stateMutability": "nonpayable",
      "type": "function"
    },
    {
      "inputs": [
        {
          "internalType": "bytes4",
          "name": "interfaceId",
          "type": "bytes4"
        }
      ],
      "name": "supportsInterface",
      "outputs": [
        {
          "internalType": "bool",
          "name": "",
          "type": "bool"
        }
      ],
      "stateMutability": "view",
      "type": "function"
    },
    {
      "inputs": [
        {
          "internalType": "uint256",
          "name": "productId",
          "type": "uint256"
        },
        {
          "internalType": "string",
          "name": "newName",
          "type": "string"
        },
        {
          "internalType": "string",
          "name": "newOrigin",
          "type": "string"
        },
        {
          "internalType": "string",
          "name": "newBatchId",
          "type": "string"
        },
        {
          "internalType": "uint256",
          "name": "newExpiryDate",
          "type": "uint256"
        }
      ],
      "name": "updateProductInfo",
      "outputs": [],
      "stateMutability": "nonpayable",
      "type": "function"
    }
  ],
  "bytecode": "0x608060405234801561001057600080fd5b506100246000801b3361002a60201b60201c565b50610199565b600061003c838361012760201b60201c565b61011c57600160008085815260200190815260200160002060000160008473ffffffffffffffffffffffffffffffffffffffff1673ffffffffffffffffffffffffffffffffffffffff16815260200190815260200160002060006101000a81548160ff0219169083151502179055506100b961019160201b60201c565b73ffffffffffffffffffffffffffffffffffffffff168273ffffffffffffffffffffffffffffffffffffffff16847f2f8788117e7eff1d82e926ec794901d17c78024a50270940304540a733656f0d60405160405180910390a460019050610121565b600090505b92915050565b600080600084815260200190815260200160002060000160008373ffffffffffffffffffffffffffffffffffffffff1673ffffffffffffffffffffffffffffffffffffffff16815260200190815260200160002060009054906101000a900460ff16905092915050565b600033905090565b612368806101a86000396000f3fe608060405234801561001057600080fd5b50600436106101005760003560e01c80639386995e11610097578063cb05765e11610066578063cb05765e146102bf578063cbf7776f146102db578063d547741f146102f7578063e9ac2d8b1461031357610100565b80639386995e14610235578063a217fddf14610265578063b43857e814610283578063bcec1df3146102a157610100565b806336568abe116100d357806336568abe1461019d5780636813b53b146101b95780636f4bacb2146101e957806391d148541461020557610100565b806301ffc9a714610105578063248a9ca3146101355780632f2ff15d1461016557806334443faf14610181575b600080fd5b61011f600480360381019061011a919061144e565b610331565b60405161012c9190611496565b60405180910390f35b61014f600480360381019061014a91906114e7565b6103ab565b60405161015c9190611523565b60405180910390f35b61017f600480360381019061017a919061159c565b6103ca565b005b61019b60048036038101906101969190611612565b6103ec565b005b6101b760048036038101906101b2919061159c565b6104da565b005b6101d360048036038101906101ce9190611612565b610555565b6040516101e091906117ba565b60405180910390f35b61020360048036038101906101fe9190611911565b6107c8565b005b61021f600480360381019061021a919061159c565b610962565b60405161022c9190611496565b60405180910390f35b61024f600480360381019061024a9190611612565b6109cc565b60405161025c9190611b1f565b60405180910390f35b61026d610bdd565b60405161027a9190611523565b60405180910390f35b61028b610be4565b6040516102989190611523565b60405180910390f35b6102a9610c08565b6040516102b69190611523565b60405180910390f35b6102d960048036038101906102d49190611b41565b610c2c565b005b6102f560048036038101906102f09190611c28565b610dfc565b005b610311600480360381019061030c919061159c565b611085565b005b61031b6110a7565b6040516103289190611523565b60405180910390f35b60007f7965db0b000000000000000000000000000000000000000000000000000000007bffffffffffffffffffffffffffffffffffffffffffffffffffffffff1916827bffffffffffffffffffffffffffffffffffffffffffffffffffffffff191614806103a457506103a3826110cb565b5b9050919050565b6000806000838152602001908152602001600020600101549050919050565b6103d3826103ab565b6103dc81611135565b6103e68383611149565b50505050565b7fc2030e84afe8cfd541c4479ced4b7fbe215607847bc89259553fe65775d29de261041681611135565b6002600083815260200190815260200160002060050160009054906101000a900460ff161561047a576040517f08c379a000000000000000000000000000000000000000000000000000000000815260040161047190611d4a565b60405180910390fd5b60016002600084815260200190815260200160002060050160006101000a81548160ff021916908315150217905550817fe213303292163b95c0f90623eb8bc1f2c15b6d888051c10cc662e78204ff042260405160405180910390a25050565b6104e261123a565b73ffffffffffffffffffffffffffffffffffffffff168173ffffffffffffffffffffffffffffffffffffffff1614610546576040517f6697b23200000000000000000000000000000000000000000000000000000000815260040160405180910390fd5b6105508282611242565b505050565b61055d611385565b60026000838152602001908152602001600020604051806101000160405290816000820154815260200160018201805461059690611d99565b80601f01602080910402602001604051908101604052809291908181526020018280546105c290611d99565b801561060f5780601f106105e45761010080835404028352916020019161060f565b820191906000526020600020905b8154815290600101906020018083116105f257829003601f168201915b505050505081526020016002820160009054906101000a900473ffffffffffffffffffffffffffffffffffffffff1673ffffffffffffffffffffffffffffffffffffffff1673ffffffffffffffffffffffffffffffffffffffff1681526020016003820154815260200160048201805461068890611d99565b80601f01602080910402602001604051908101604052809291908181526020018280546106b490611d99565b80156107015780601f106106d657610100808354040283529160200191610701565b820191906000526020600020905b8154815290600101906020018083116106e457829003601f168201915b505050505081526020016005820160009054906101000a900460ff1615151515815260200160068201805461073590611d99565b80601f016020809104026020016040519081016040528092919081815260200182805461076190611d99565b80156107ae5780601f10610783576101008083540402835291602001916107ae565b820191906000526020600020905b81548152906001019060200180831161079157829003601f168201915b505050505081526020016007820154815250509050919050565b7ff1a7ebff2a3302e8110689b0c37dde2ef827caacb2d788a992b1b84ace4522a56107f281611135565b60006002600088815260200190815260200160002090503373ffffffffffffffffffffffffffffffffffffffff168160020160009054906101000a900473ffffffffffffffffffffffffffffffffffffffff1673ffffffffffffffffffffffffffffffffffffffff161461089b576040517f08c379a000000000000000000000000000000000000000000000000000000000815260040161089290611e16565b60405180910390fd5b8060050160009054906101000a900460ff16156108ed576040517f08c379a00000000000000000000000000000000000000000000000000000000081526004016108e490611e82565b60405180910390fd5b858160010190816108fe919061204e565b5084816004019081610910919061204e565b5083816006019081610922919061204e565b50828160070181905550867feca6714fcf568fb34cf9db4a414cb0cc48e93c5d4e1ba0582a46ea3704cf24d560405160405180910390a250505050505050565b600080600084815260200190815260200160002060000160008373ffffffffffffffffffffffffffffffffffffffff1673ffffffffffffffffffffffffffffffffffffffff16815260200190815260200160002060009054906101000a900460ff16905092915050565b606060036000838152602001908152602001600020805480602002602001604051908101604052809291908181526020016000905b82821015610bd257838290600052602060002090600502016040518060a00160405290816000820160009054906101000a900473ffffffffffffffffffffffffffffffffffffffff1673ffffffffffffffffffffffffffffffffffffffff1673ffffffffffffffffffffffffffffffffffffffff16815260200160018201548152602001600282018054610a9490611d99565b80601f0160208091040260200160405190810160405280929190818152602001828054610ac090611d99565b8015610b0d5780601f10610ae257610100808354040283529160200191610b0d565b820191906000526020600020905b815481529060010190602001808311610af057829003601f168201915b505050505081526020016003820160009054906101000a900460ff16151515158152602001600482018054610b4190611d99565b80601f0160208091040260200160405190810160405280929190818152602001828054610b6d90611d99565b8015610bba5780601f10610b8f57610100808354040283529160200191610bba565b820191906000526020600020905b815481529060010190602001808311610b9d57829003601f168201915b50505050508152505081526020019060010190610a01565b505050509050919050565b6000801b81565b7fc2030e84afe8cfd541c4479ced4b7fbe215607847bc89259553fe65775d29de281565b7f3be47d0d310b1675c2180e5425a6596a84a756733885899e4c573f5bfd08af7981565b7ff1a7ebff2a3302e8110689b0c37dde2ef827caacb2d788a992b1b84ace4522a5610c5681611135565b60016000815480929190610c699061214f565b9190505550600060015490506040518061010001604052808281526020018781526020013373ffffffffffffffffffffffffffffffffffffffff1681526020014281526020018681526020016000151581526020018581526020018481525060026000838152602001908152602001600020600082015181600001556020820151816001019081610cfa919061204e565b5060408201518160020160006101000a81548173ffffffffffffffffffffffffffffffffffffffff021916908373ffffffffffffffffffffffffffffffffffffffff160217905550606082015181600301556080820151816004019081610d61919061204e565b5060a08201518160050160006101000a81548160ff02191690831515021790555060c0820151816006019081610d97919061204e565b5060e082015181600701559050503373ffffffffffffffffffffffffffffffffffffffff16817fd810998a0248808a33b20218e71759cb2ec1a182b398350ad606d742587c012c88604051610dec91906121d0565b60405180910390a3505050505050565b610e267ff1a7ebff2a3302e8110689b0c37dde2ef827caacb2d788a992b1b84ace4522a533610962565b80610e575750610e567f3be47d0d310b1675c2180e5425a6596a84a756733885899e4c573f5bfd08af7933610962565b5b80610e885750610e877fc2030e84afe8cfd541c4479ced4b7fbe215607847bc89259553fe65775d29de233610962565b5b610ec7576040517f08c379a0000000000000000000000000000000000000000000000000000000008152600401610ebe9061223e565b60405180910390fd5b6002600085815260200190815260200160002060050160009054906101000a900460ff1615610f2b576040517f08c379a0000000000000000000000000000000000000000000000000000000008152600401610f22906122aa565b60405180910390fd5b600360008581526020019081526020016000206040518060a001604052803373ffffffffffffffffffffffffffffffffffffffff168152602001428152602001858152602001841515815260200183815250908060018154018082558091505060019003906000526020600020906005020160009091909190915060008201518160000160006101000a81548173ffffffffffffffffffffffffffffffffffffffff021916908373ffffffffffffffffffffffffffffffffffffffff16021790555060208201518160010155604082015181600201908161100c919061204e565b5060608201518160030160006101000a81548160ff0219169083151502179055506080820151816004019081611042919061204e565b505050837f4e789b2626f9b0adc3f9234ca7ce240624e0b1489325a308377e5184a18fd68484846040516110779291906122ca565b60405180910390a250505050565b61108e826103ab565b61109781611135565b6110a18383611242565b50505050565b7ff1a7ebff2a3302e8110689b0c37dde2ef827caacb2d788a992b1b84ace4522a581565b60007f01ffc9a7000000000000000000000000000000000000000000000000000000007bffffffffffffffffffffffffffffffffffffffffffffffffffffffff1916827bffffffffffffffffffffffffffffffffffffffffffffffffffffffff1916149050919050565b6111468161114161123a565b611334565b50565b60006111558383610962565b61122f57600160008085815260200190815260200160002060000160008473ffffffffffffffffffffffffffffffffffffffff1673ffffffffffffffffffffffffffffffffffffffff16815260200190815260200160002060006101000a81548160ff0219169083151502179055506111cc61123a565b73ffffffffffffffffffffffffffffffffffffffff168273ffffffffffffffffffffffffffffffffffffffff16847f2f8788117e7eff1d82e926ec794901d17c78024a50270940304540a733656f0d60405160405180910390a460019050611234565b600090505b92915050565b600033905090565b600061124e8383610962565b1561132957600080600085815260200190815260200160002060000160008473ffffffffffffffffffffffffffffffffffffffff1673ffffffffffffffffffffffffffffffffffffffff16815260200190815260200160002060006101000a81548160ff0219169083151502179055506112c661123a565b73ffffffffffffffffffffffffffffffffffffffff168273ffffffffffffffffffffffffffffffffffffffff16847ff6391f5c32d9c69d2a47ea670b442974b53935d1edc7fd64eb21e047a839171b60405160405180910390a46001905061132e565b600090505b92915050565b61133e8282610962565b6113815780826040517fe2517d3f000000000000000000000000000000000000000000000000000000008152600401611378929190612309565b60405180910390fd5b5050565b6040518061010001604052806000815260200160608152602001600073ffffffffffffffffffffffffffffffffffffffff168152602001600081526020016060815260200160001515815260200160608152602001600081525090565b6000604051905090565b600080fd5b600080fd5b60007fffffffff0000000000000000000000000000000000000000000000000000000082169050919050565b61142b816113f6565b811461143657600080fd5b50565b60008135905061144881611422565b92915050565b600060208284031215611464576114636113ec565b5b600061147284828501611439565b91505092915050565b60008115159050919050565b6114908161147b565b82525050565b60006020820190506114ab6000830184611487565b92915050565b6000819050919050565b6114c4816114b1565b81146114cf57600080fd5b50565b6000813590506114e1816114bb565b92915050565b6000602082840312156114fd576114fc6113ec565b5b600061150b848285016114d2565b91505092915050565b61151d816114b1565b82525050565b60006020820190506115386000830184611514565b92915050565b600073ffffffffffffffffffffffffffffffffffffffff82169050919050565b60006115698261153e565b9050919050565b6115798161155e565b811461158457600080fd5b50565b60008135905061159681611570565b92915050565b600080604083850312156115b3576115b26113ec565b5b60006115c1858286016114d2565b92505060206115d285828601611587565b9150509250929050565b6000819050919050565b6115ef816115dc565b81146115fa57600080fd5b50565b60008135905061160c816115e6565b92915050565b600060208284031215611628576116276113ec565b5b6000611636848285016115fd565b91505092915050565b611648816115dc565b82525050565b600081519050919050565b600082825260208201905092915050565b60005b8381101561168857808201518184015260208101905061166d565b60008484015250505050565b6000601f19601f8301169050919050565b60006116b08261164e565b6116ba8185611659565b93506116ca81856020860161166a565b6116d381611694565b840191505092915050565b6116e78161155e565b82525050565b6116f68161147b565b82525050565b600061010083016000830151611715600086018261163f565b506020830151848203602086015261172d82826116a5565b915050604083015161174260408601826116de565b506060830151611755606086018261163f565b506080830151848203608086015261176d82826116a5565b91505060a083015161178260a08601826116ed565b5060c083015184820360c086015261179a82826116a5565b91505060e08301516117af60e086018261163f565b508091505092915050565b600060208201905081810360008301526117d481846116fc565b905092915050565b600080fd5b600080fd5b7f4e487b7100000000000000000000000000000000000000000000000000000000600052604160045260246000fd5b61181e82611694565b810181811067ffffffffffffffff8211171561183d5761183c6117e6565b5b80604052505050565b60006118506113e2565b905061185c8282611815565b919050565b600067ffffffffffffffff82111561187c5761187b6117e6565b5b61188582611694565b9050602081019050919050565b82818337600083830152505050565b60006118b46118af84611861565b611846565b9050828152602081018484840111156118d0576118cf6117e1565b5b6118db848285611892565b509392505050565b600082601f8301126118f8576118f76117dc565b5b81356119088482602086016118a1565b91505092915050565b600080600080600060a0868803121561192d5761192c6113ec565b5b600061193b888289016115fd565b955050602086013567ffffffffffffffff81111561195c5761195b6113f1565b5b611968888289016118e3565b945050604086013567ffffffffffffffff811115611989576119886113f1565b5b611995888289016118e3565b935050606086013567ffffffffffffffff8111156119b6576119b56113f1565b5b6119c2888289016118e3565b92505060806119d3888289016115fd565b9150509295509295909350565b600081519050919050565b600082825260208201905092915050565b6000819050602082019050919050565b600060a083016000830151611a2460008601826116de565b506020830151611a37602086018261163f565b5060408301518482036040860152611a4f82826116a5565b9150506060830151611a6460608601826116ed565b5060808301518482036080860152611a7c82826116a5565b9150508091505092915050565b6000611a958383611a0c565b905092915050565b6000602082019050919050565b6000611ab5826119e0565b611abf81856119eb565b935083602082028501611ad1856119fc565b8060005b85811015611b0d5784840389528151611aee8582611a89565b9450611af983611a9d565b925060208a01995050600181019050611ad5565b50829750879550505050505092915050565b60006020820190508181036000830152611b398184611aaa565b905092915050565b60008060008060808587031215611b5b57611b5a6113ec565b5b600085013567ffffffffffffffff811115611b7957611b786113f1565b5b611b85878288016118e3565b945050602085013567ffffffffffffffff811115611ba657611ba56113f1565b5b611bb2878288016118e3565b935050604085013567ffffffffffffffff811115611bd357611bd26113f1565b5b611bdf878288016118e3565b9250506060611bf0878288016115fd565b91505092959194509250565b611c058161147b565b8114611c1057600080fd5b50565b600081359050611c2281611bfc565b92915050565b60008060008060808587031215611c4257611c416113ec565b5b6000611c50878288016115fd565b945050602085013567ffffffffffffffff811115611c7157611c706113f1565b5b611c7d878288016118e3565b9350506040611c8e87828801611c13565b925050606085013567ffffffffffffffff811115611caf57611cae6113f1565b5b611cbb878288016118e3565b91505092959194509250565b600082825260208201905092915050565b7f50726f64756374206a6f75726e657920616c726561647920636f6d706c65746560008201527f6400000000000000000000000000000000000000000000000000000000000000602082015250565b6000611d34602183611cc7565b9150611d3f82611cd8565b604082019050919050565b60006020820190508181036000830152611d6381611d27565b9050919050565b7f4e487b7100000000000000000000000000000000000000000000000000000000600052602260045260246000fd5b60006002820490506001821680611db157607f821691505b602082108103611dc457611dc3611d6a565b5b50919050565b7f4f6e6c79206d616e7566616374757265722063616e2075706461746500000000600082015250565b6000611e00601c83611cc7565b9150611e0b82611dca565b602082019050919050565b60006020820190508181036000830152611e2f81611df3565b9050919050565b7f43616e6e6f742075706461746520636f6d706c657465642070726f6475637400600082015250565b6000611e6c601f83611cc7565b9150611e7782611e36565b602082019050919050565b60006020820190508181036000830152611e9b81611e5f565b9050919050565b60008190508160005260206000209050919050565b60006020601f8301049050919050565b600082821b905092915050565b600060088302611f047fffffffffffffffffffffffffffffffffffffffffffffffffffffffffffffffff82611ec7565b611f0e8683611ec7565b95508019841693508086168417925050509392505050565b6000819050919050565b6000611f4b611f46611f41846115dc565b611f26565b6115dc565b9050919050565b6000819050919050565b611f6583611f30565b611f79611f7182611f52565b848454611ed4565b825550505050565b600090565b611f8e611f81565b611f99818484611f5c565b505050565b5b81811015611fbd57611fb2600082611f86565b600181019050611f9f565b5050565b601f82111561200257611fd381611ea2565b611fdc84611eb7565b81016020851015611feb578190505b611fff611ff785611eb7565b830182611f9e565b50505b505050565b600082821c905092915050565b600061202560001984600802612007565b1980831691505092915050565b600061203e8383612014565b9150826002028217905092915050565b6120578261164e565b67ffffffffffffffff8111156120705761206f6117e6565b5b61207a8254611d99565b612085828285611fc1565b600060209050601f8311600181146120b857600084156120a6578287015190505b6120b08582612032565b865550612118565b601f1984166120c686611ea2565b60005b828110156120ee578489015182556001820191506020850194506020810190506120c9565b8683101561210b5784890151612107601f891682612014565b8355505b6001600288020188555050505b505050505050565b7f4e487b7100000000000000000000000000000000000000000000000000000000600052601160045260246000fd5b600061215a826115dc565b91507fffffffffffffffffffffffffffffffffffffffffffffffffffffffffffffffff820361218c5761218b612120565b5b600182019050919050565b60006121a28261164e565b6121ac8185611cc7565b93506121bc81856020860161166a565b6121c581611694565b840191505092915050565b600060208201905081810360008301526121ea8184612197565b905092915050565b7f556e617574686f72697a65642063616c6c657200000000000000000000000000600082015250565b6000612228601383611cc7565b9150612233826121f2565b602082019050919050565b600060208201905081810360008301526122578161221b565b9050919050565b7f50726f64756374206a6f75726e657920636f6d706c6574656400000000000000600082015250565b6000612294601983611cc7565b915061229f8261225e565b602082019050919050565b600060208201905081810360008301526122c381612287565b9050919050565b600060408201905081810360008301526122e48185612197565b90506122f36020830184611487565b9392505050565b6123038161155e565b82525050565b600060408201905061231e60008301856122fa565b61232b6020830184611514565b939250505056fea26469706673582212208deed5078b2cd04fb979c60fc27b0196c57482ff81f951904d3e612a8f5f1b9264736f6c634300081b0033",
  "linkReferences": {},
  "deployedLinkReferences": {}
}